{
  "_format": "hh-sol-artifact-1",
  "contractName": "CredentialStatus",
  "sourceName": "contracts/CredentialStatus.sol",
  "abi": [
    {
      "anonymous": false,
      "inputs": [
        {
          "indexed": true,
          "internalType": "bytes32",
          "name": "credentialHash",
          "type": "bytes32"
        }
      ],
      "name": "CredentialActivated",
      "type": "event"
    },
    {
      "anonymous": false,
      "inputs": [
        {
          "indexed": true,
          "internalType": "bytes32",
          "name": "credentialHash",
          "type": "bytes32"
        }
      ],
      "name": "CredentialRevoked",
      "type": "event"
    },
    {
      "inputs": [
        {
          "internalType": "bytes32",
          "name": "_credentialHash",
          "type": "bytes32"
        }
      ],
      "name": "activateCredential",
      "outputs": [],
      "stateMutability": "nonpayable",
      "type": "function"
    },
    {
      "inputs": [
        {
          "internalType": "bytes32",
          "name": "_credentialHash",
          "type": "bytes32"
        }
      ],
      "name": "checkStatus",
      "outputs": [
        {
          "internalType": "bool",
          "name": "",
          "type": "bool"
        }
      ],
      "stateMutability": "view",
      "type": "function"
    },
    {
      "inputs": [
        {
          "internalType": "bytes32",
          "name": "",
          "type": "bytes32"
        }
      ],
      "name": "isRevoked",
      "outputs": [
        {
          "internalType": "bool",
          "name": "",
          "type": "bool"
        }
      ],
      "stateMutability": "view",
      "type": "function"
    },
    {
      "inputs": [
        {
          "internalType": "bytes32",
          "name": "",
          "type": "bytes32"
        }
      ],
      "name": "isValid",
      "outputs": [
        {
          "internalType": "bool",
          "name": "",
          "type": "bool"
        }
      ],
      "stateMutability": "view",
      "type": "function"
    },
    {
      "inputs": [
        {
          "internalType": "bytes32",
          "name": "_credentialHash",
          "type": "bytes32"
        }
      ],
      "name": "revokeCredential",
      "outputs": [],
      "stateMutability": "nonpayable",
      "type": "function"
    }
  ],
  "bytecode": "0x608060405234801561001057600080fd5b50610398806100206000396000f3fe608060405234801561001057600080fd5b50600436106100575760003560e01c80634294857f1461005c5780636a9385671461008c578063a2200278146100bc578063ca6eec78146100ec578063dcaf854814610108575b600080fd5b610076600480360381019061007191906102ff565b610124565b6040516100839190610347565b60405180910390f35b6100a660048036038101906100a191906102ff565b610144565b6040516100b39190610347565b60405180910390f35b6100d660048036038101906100d191906102ff565b610164565b6040516100e39190610347565b60405180910390f35b610106600480360381019061010191906102ff565b6101b7565b005b610122600480360381019061011d91906102ff565b61023e565b005b60006020528060005260406000206000915054906101000a900460ff1681565b60016020528060005260406000206000915054906101000a900460ff1681565b60006001600083815260200190815260200160002060009054906101000a900460ff1680156101b0575060008083815260200190815260200160002060009054906101000a900460ff16155b9050919050565b600160008083815260200190815260200160002060006101000a81548160ff02191690831515021790555060006001600083815260200190815260200160002060006101000a81548160ff021916908315150217905550807f3cc2375f3fc7711ba27361cde93880f578742f9f050acee766bed662d117ba7260405160405180910390a250565b600180600083815260200190815260200160002060006101000a81548160ff021916908315150217905550600080600083815260200190815260200160002060006101000a81548160ff021916908315150217905550807fe8135b4ed44eea0e14a6b0126cd172da40608c0e1ee2dc7245703cf5aa9f183560405160405180910390a250565b600080fd5b6000819050919050565b6102dc816102c9565b81146102e757600080fd5b50565b6000813590506102f9816102d3565b92915050565b600060208284031215610315576103146102c4565b5b6000610323848285016102ea565b91505092915050565b60008115159050919050565b6103418161032c565b82525050565b600060208201905061035c6000830184610338565b9291505056fea26469706673582212206c41c6004102944f81df1296b1dad08b0f9882ff305a8a9818478d2d565109b864736f6c63430008180033",
  "linkReferences": {},
  "deployedLinkReferences": {}
}