{
  "_format": "hh-sol-artifact-1",
  "contractName": "CredentialManager",
  "sourceName": "contracts/CredentialManager.sol",
  "abi": [
    {
      "inputs": [
        {
          "internalType": "address",
          "name": "_didRegistryAddress",
          "type": "address"
        },
        {
          "internalType": "address",
          "name": "_credentialStatusAddress",
          "type": "address"
        }
      ],
      "stateMutability": "nonpayable",
      "type": "constructor"
    },
    {
      "anonymous": false,
      "inputs": [
        {
          "indexed": true,
          "internalType": "bytes32",
          "name": "credentialHash",
          "type": "bytes32"
        },
        {
          "indexed": true,
          "internalType": "address",
          "name": "issuer",
          "type": "address"
        },
        {
          "indexed": true,
          "internalType": "address",
          "name": "subject",
          "type": "address"
        },
        {
          "indexed": false,
          "internalType": "string",
          "name": "ipfsHash",
          "type": "string"
        }
      ],
      "name": "CredentialIssued",
      "type": "event"
    },
    {
      "inputs": [],
      "name": "credentialStatus",
      "outputs": [
        {
          "internalType": "contract CredentialStatus",
          "name": "",
          "type": "address"
        }
      ],
      "stateMutability": "view",
      "type": "function"
    },
    {
      "inputs": [
        {
          "internalType": "bytes32",
          "name": "",
          "type": "bytes32"
        }
      ],
      "name": "credentials",
      "outputs": [
        {
          "internalType": "address",
          "name": "issuer",
          "type": "address"
        },
        {
          "internalType": "address",
          "name": "subject",
          "type": "address"
        },
        {
          "internalType": "string",
          "name": "ipfsHash",
          "type": "string"
        }
      ],
      "stateMutability": "view",
      "type": "function"
    },
    {
      "inputs": [],
      "name": "didRegistry",
      "outputs": [
        {
          "internalType": "contract DIDRegistry",
          "name": "",
          "type": "address"
        }
      ],
      "stateMutability": "view",
      "type": "function"
    },
    {
      "inputs": [
        {
          "internalType": "address",
          "name": "_subject",
          "type": "address"
        },
        {
          "internalType": "string",
          "name": "_ipfsHash",
          "type": "string"
        }
      ],
      "name": "issueCredential",
      "outputs": [
        {
          "internalType": "bytes32",
          "name": "",
          "type": "bytes32"
        }
      ],
      "stateMutability": "nonpayable",
      "type": "function"
    },
    {
      "inputs": [
        {
          "internalType": "bytes32",
          "name": "_credentialHash",
          "type": "bytes32"
        }
      ],
      "name": "verifyCredential",
      "outputs": [
        {
          "internalType": "bool",
          "name": "",
          "type": "bool"
        }
      ],
      "stateMutability": "view",
      "type": "function"
    }
  ],
  "bytecode": "0x60806040523480156200001157600080fd5b50604051620013463803806200134683398181016040528101906200003791906200012a565b816000806101000a81548173ffffffffffffffffffffffffffffffffffffffff021916908373ffffffffffffffffffffffffffffffffffffffff16021790555080600160006101000a81548173ffffffffffffffffffffffffffffffffffffffff021916908373ffffffffffffffffffffffffffffffffffffffff160217905550505062000171565b600080fd5b600073ffffffffffffffffffffffffffffffffffffffff82169050919050565b6000620000f282620000c5565b9050919050565b6200010481620000e5565b81146200011057600080fd5b50565b6000815190506200012481620000f9565b92915050565b60008060408385031215620001445762000143620000c0565b5b6000620001548582860162000113565b9250506020620001678582860162000113565b9150509250929050565b6111c580620001816000396000f3fe608060405234801561001057600080fd5b50600436106100575760003560e01c8063299d03481461005c5780634dbf87cc1461008e578063577f9fb1146100be57806390c7c49c146100dc578063e2631fb41461010c575b600080fd5b6100766004803603810190610071919061077b565b61012a565b60405161008593929190610879565b60405180910390f35b6100a860048036038101906100a3919061077b565b61021c565b6040516100b591906108d2565b60405180910390f35b6100c66102c1565b6040516100d3919061094c565b60405180910390f35b6100f660048036038101906100f19190610ac8565b6102e5565b6040516101039190610b33565b60405180910390f35b61011461070b565b6040516101219190610b6f565b60405180910390f35b60026020528060005260406000206000915090508060000160009054906101000a900473ffffffffffffffffffffffffffffffffffffffff16908060010160009054906101000a900473ffffffffffffffffffffffffffffffffffffffff169080600201805461019990610bb9565b80601f01602080910402602001604051908101604052809291908181526020018280546101c590610bb9565b80156102125780601f106101e757610100808354040283529160200191610212565b820191906000526020600020905b8154815290600101906020018083116101f557829003601f168201915b5050505050905083565b6000600160009054906101000a900473ffffffffffffffffffffffffffffffffffffffff1673ffffffffffffffffffffffffffffffffffffffff1663a2200278836040518263ffffffff1660e01b81526004016102799190610b33565b602060405180830381865afa158015610296573d6000803e3d6000fd5b505050506040513d601f19601f820116820180604052508101906102ba9190610c16565b9050919050565b60008054906101000a900473ffffffffffffffffffffffffffffffffffffffff1681565b60008060008054906101000a900473ffffffffffffffffffffffffffffffffffffffff1673ffffffffffffffffffffffffffffffffffffffff1663f64e30b0336040518263ffffffff1660e01b81526004016103419190610c43565b600060405180830381865afa15801561035e573d6000803e3d6000fd5b505050506040513d6000823e3d601f19601f820116820180604052508101906103879190610ce3565b5050905060008060009054906101000a900473ffffffffffffffffffffffffffffffffffffffff1673ffffffffffffffffffffffffffffffffffffffff1663f64e30b0866040518263ffffffff1660e01b81526004016103e79190610c43565b600060405180830381865afa158015610404573d6000803e3d6000fd5b505050506040513d6000823e3d601f19601f8201168201806040525081019061042d9190610ce3565b50509050600073ffffffffffffffffffffffffffffffffffffffff168273ffffffffffffffffffffffffffffffffffffffff161415801561049b5750600073ffffffffffffffffffffffffffffffffffffffff168173ffffffffffffffffffffffffffffffffffffffff1614155b6104da576040517f08c379a00000000000000000000000000000000000000000000000000000000081526004016104d190610de0565b60405180910390fd5b6000338686426040516020016104f39493929190610eaf565b60405160208183030381529060405280519060200120905060405180606001604052803373ffffffffffffffffffffffffffffffffffffffff1681526020018773ffffffffffffffffffffffffffffffffffffffff168152602001868152506002600083815260200190815260200160002060008201518160000160006101000a81548173ffffffffffffffffffffffffffffffffffffffff021916908373ffffffffffffffffffffffffffffffffffffffff16021790555060208201518160010160006101000a81548173ffffffffffffffffffffffffffffffffffffffff021916908373ffffffffffffffffffffffffffffffffffffffff1602179055506040820151816002019081610608919061109b565b50905050600160009054906101000a900473ffffffffffffffffffffffffffffffffffffffff1673ffffffffffffffffffffffffffffffffffffffff1663dcaf8548826040518263ffffffff1660e01b81526004016106679190610b33565b600060405180830381600087803b15801561068157600080fd5b505af1158015610695573d6000803e3d6000fd5b505050508573ffffffffffffffffffffffffffffffffffffffff163373ffffffffffffffffffffffffffffffffffffffff16827f8fbd2b7cfb4db91a4f4b683fc96c73b5adc9f9aee31b983df603621b12c54987886040516106f7919061116d565b60405180910390a480935050505092915050565b600160009054906101000a900473ffffffffffffffffffffffffffffffffffffffff1681565b6000604051905090565b600080fd5b600080fd5b6000819050919050565b61075881610745565b811461076357600080fd5b50565b6000813590506107758161074f565b92915050565b6000602082840312156107915761079061073b565b5b600061079f84828501610766565b91505092915050565b600073ffffffffffffffffffffffffffffffffffffffff82169050919050565b60006107d3826107a8565b9050919050565b6107e3816107c8565b82525050565b600081519050919050565b600082825260208201905092915050565b60005b83811015610823578082015181840152602081019050610808565b60008484015250505050565b6000601f19601f8301169050919050565b600061084b826107e9565b61085581856107f4565b9350610865818560208601610805565b61086e8161082f565b840191505092915050565b600060608201905061088e60008301866107da565b61089b60208301856107da565b81810360408301526108ad8184610840565b9050949350505050565b60008115159050919050565b6108cc816108b7565b82525050565b60006020820190506108e760008301846108c3565b92915050565b6000819050919050565b600061091261090d610908846107a8565b6108ed565b6107a8565b9050919050565b6000610924826108f7565b9050919050565b600061093682610919565b9050919050565b6109468161092b565b82525050565b6000602082019050610961600083018461093d565b92915050565b610970816107c8565b811461097b57600080fd5b50565b60008135905061098d81610967565b92915050565b600080fd5b600080fd5b7f4e487b7100000000000000000000000000000000000000000000000000000000600052604160045260246000fd5b6109d58261082f565b810181811067ffffffffffffffff821117156109f4576109f361099d565b5b80604052505050565b6000610a07610731565b9050610a1382826109cc565b919050565b600067ffffffffffffffff821115610a3357610a3261099d565b5b610a3c8261082f565b9050602081019050919050565b82818337600083830152505050565b6000610a6b610a6684610a18565b6109fd565b905082815260208101848484011115610a8757610a86610998565b5b610a92848285610a49565b509392505050565b600082601f830112610aaf57610aae610993565b5b8135610abf848260208601610a58565b91505092915050565b60008060408385031215610adf57610ade61073b565b5b6000610aed8582860161097e565b925050602083013567ffffffffffffffff811115610b0e57610b0d610740565b5b610b1a85828601610a9a565b9150509250929050565b610b2d81610745565b82525050565b6000602082019050610b486000830184610b24565b92915050565b6000610b5982610919565b9050919050565b610b6981610b4e565b82525050565b6000602082019050610b846000830184610b60565b92915050565b7f4e487b7100000000000000000000000000000000000000000000000000000000600052602260045260246000fd5b60006002820490506001821680610bd157607f821691505b602082108103610be457610be3610b8a565b5b50919050565b610bf3816108b7565b8114610bfe57600080fd5b50565b600081519050610c1081610bea565b92915050565b600060208284031215610c2c57610c2b61073b565b5b6000610c3a84828501610c01565b91505092915050565b6000602082019050610c5860008301846107da565b92915050565b600081519050610c6d81610967565b92915050565b6000610c86610c8184610a18565b6109fd565b905082815260208101848484011115610ca257610ca1610998565b5b610cad848285610805565b509392505050565b600082601f830112610cca57610cc9610993565b5b8151610cda848260208601610c73565b91505092915050565b600080600060608486031215610cfc57610cfb61073b565b5b6000610d0a86828701610c5e565b935050602084015167ffffffffffffffff811115610d2b57610d2a610740565b5b610d3786828701610cb5565b925050604084015167ffffffffffffffff811115610d5857610d57610740565b5b610d6486828701610cb5565b9150509250925092565b7f426f74682070617274696573206d75737420686176652072656769737465726560008201527f6420444944730000000000000000000000000000000000000000000000000000602082015250565b6000610dca6026836107f4565b9150610dd582610d6e565b604082019050919050565b60006020820190508181036000830152610df981610dbd565b9050919050565b60008160601b9050919050565b6000610e1882610e00565b9050919050565b6000610e2a82610e0d565b9050919050565b610e42610e3d826107c8565b610e1f565b82525050565b600081905092915050565b6000610e5e826107e9565b610e688185610e48565b9350610e78818560208601610805565b80840191505092915050565b6000819050919050565b6000819050919050565b610ea9610ea482610e84565b610e8e565b82525050565b6000610ebb8287610e31565b601482019150610ecb8286610e31565b601482019150610edb8285610e53565b9150610ee78284610e98565b60208201915081905095945050505050565b60008190508160005260206000209050919050565b60006020601f8301049050919050565b600082821b905092915050565b600060088302610f5b7fffffffffffffffffffffffffffffffffffffffffffffffffffffffffffffffff82610f1e565b610f658683610f1e565b95508019841693508086168417925050509392505050565b6000610f98610f93610f8e84610e84565b6108ed565b610e84565b9050919050565b6000819050919050565b610fb283610f7d565b610fc6610fbe82610f9f565b848454610f2b565b825550505050565b600090565b610fdb610fce565b610fe6818484610fa9565b505050565b5b8181101561100a57610fff600082610fd3565b600181019050610fec565b5050565b601f82111561104f5761102081610ef9565b61102984610f0e565b81016020851015611038578190505b61104c61104485610f0e565b830182610feb565b50505b505050565b600082821c905092915050565b600061107260001984600802611054565b1980831691505092915050565b600061108b8383611061565b9150826002028217905092915050565b6110a4826107e9565b67ffffffffffffffff8111156110bd576110bc61099d565b5b6110c78254610bb9565b6110d282828561100e565b600060209050601f83116001811461110557600084156110f3578287015190505b6110fd858261107f565b865550611165565b601f19841661111386610ef9565b60005b8281101561113b57848901518255600182019150602085019450602081019050611116565b868310156111585784890151611154601f891682611061565b8355505b6001600288020188555050505b505050505050565b600060208201905081810360008301526111878184610840565b90509291505056fea2646970667358221220035ad59b69b3d543f6a9632913515055f1557fc2b377504ea396596e71fbcf8764736f6c63430008180033",
  "linkReferences": {},
  "deployedLinkReferences": {}
}