{
  "_format": "hh-sol-artifact-1",
  "contractName": "DIDRegistry",
  "sourceName": "contracts/DIDRegistry.sol",
  "abi": [
    {
      "anonymous": false,
      "inputs": [
        {
          "indexed": true,
          "internalType": "address",
          "name": "identity",
          "type": "address"
        },
        {
          "indexed": false,
          "internalType": "address",
          "name": "controller",
          "type": "address"
        },
        {
          "indexed": false,
          "internalType": "string",
          "name": "publicKey",
          "type": "string"
        }
      ],
      "name": "DIDRegistered",
      "type": "event"
    },
    {
      "anonymous": false,
      "inputs": [
        {
          "indexed": true,
          "internalType": "address",
          "name": "identity",
          "type": "address"
        },
        {
          "indexed": false,
          "internalType": "string",
          "name": "newServiceEndpoint",
          "type": "string"
        }
      ],
      "name": "DIDUpdated",
      "type": "event"
    },
    {
      "inputs": [
        {
          "internalType": "address",
          "name": "",
          "type": "address"
        }
      ],
      "name": "dids",
      "outputs": [
        {
          "internalType": "address",
          "name": "controller",
          "type": "address"
        },
        {
          "internalType": "string",
          "name": "publicKey",
          "type": "string"
        },
        {
          "internalType": "string",
          "name": "serviceEndpoint",
          "type": "string"
        },
        {
          "internalType": "bool",
          "name": "exists",
          "type": "bool"
        }
      ],
      "stateMutability": "view",
      "type": "function"
    },
    {
      "inputs": [
        {
          "internalType": "address",
          "name": "_user",
          "type": "address"
        }
      ],
      "name": "getDID",
      "outputs": [
        {
          "internalType": "address",
          "name": "controller",
          "type": "address"
        },
        {
          "internalType": "string",
          "name": "pubKey",
          "type": "string"
        },
        {
          "internalType": "string",
          "name": "endpoint",
          "type": "string"
        }
      ],
      "stateMutability": "view",
      "type": "function"
    },
    {
      "inputs": [
        {
          "internalType": "address",
          "name": "_controller",
          "type": "address"
        },
        {
          "internalType": "string",
          "name": "_publicKey",
          "type": "string"
        },
        {
          "internalType": "string",
          "name": "_endpoint",
          "type": "string"
        }
      ],
      "name": "registerDID",
      "outputs": [],
      "stateMutability": "nonpayable",
      "type": "function"
    },
    {
      "inputs": [
        {
          "internalType": "address",
          "name": "_identity",
          "type": "address"
        },
        {
          "internalType": "string",
          "name": "_newEndpoint",
          "type": "string"
        }
      ],
      "name": "updateService",
      "outputs": [],
      "stateMutability": "nonpayable",
      "type": "function"
    }
  ],
  "bytecode": "0x608060405234801561001057600080fd5b50611134806100206000396000f3fe608060405234801561001057600080fd5b506004361061004c5760003560e01c80633593f81b1461005157806356c4ca9c146100845780637b4c1ee6146100a0578063f64e30b0146100bc575b600080fd5b61006b600480360381019061006691906108e5565b6100ee565b60405161007b94939291906109cc565b60405180910390f35b61009e60048036038101906100999190610b54565b61025b565b005b6100ba60048036038101906100b59190610bb0565b610459565b005b6100d660048036038101906100d191906108e5565b61064b565b6040516100e593929190610c3b565b60405180910390f35b60006020528060005260406000206000915090508060000160009054906101000a900473ffffffffffffffffffffffffffffffffffffffff169080600101805461013790610caf565b80601f016020809104026020016040519081016040528092919081815260200182805461016390610caf565b80156101b05780601f10610185576101008083540402835291602001916101b0565b820191906000526020600020905b81548152906001019060200180831161019357829003601f168201915b5050505050908060020180546101c590610caf565b80601f01602080910402602001604051908101604052809291908181526020018280546101f190610caf565b801561023e5780601f106102135761010080835404028352916020019161023e565b820191906000526020600020905b81548152906001019060200180831161022157829003601f168201915b5050505050908060030160009054906101000a900460ff16905084565b6000808373ffffffffffffffffffffffffffffffffffffffff1673ffffffffffffffffffffffffffffffffffffffff16815260200190815260200160002060030160009054906101000a900460ff166102e9576040517f08c379a00000000000000000000000000000000000000000000000000000000081526004016102e090610d2c565b60405180910390fd5b6000808373ffffffffffffffffffffffffffffffffffffffff1673ffffffffffffffffffffffffffffffffffffffff16815260200190815260200160002060000160009054906101000a900473ffffffffffffffffffffffffffffffffffffffff1673ffffffffffffffffffffffffffffffffffffffff163373ffffffffffffffffffffffffffffffffffffffff16146103b8576040517f08c379a00000000000000000000000000000000000000000000000000000000081526004016103af90610d98565b60405180910390fd5b806000808473ffffffffffffffffffffffffffffffffffffffff1673ffffffffffffffffffffffffffffffffffffffff16815260200190815260200160002060020190816104069190610f6e565b508173ffffffffffffffffffffffffffffffffffffffff167fa0016473004b22caf3cbe32658844f4dfe20b54f72612d0ea625cc07ca3a192b8260405161044d9190611040565b60405180910390a25050565b6000803373ffffffffffffffffffffffffffffffffffffffff1673ffffffffffffffffffffffffffffffffffffffff16815260200190815260200160002060030160009054906101000a900460ff16156104e8576040517f08c379a00000000000000000000000000000000000000000000000000000000081526004016104df906110ae565b60405180910390fd5b60405180608001604052808473ffffffffffffffffffffffffffffffffffffffff168152602001838152602001828152602001600115158152506000803373ffffffffffffffffffffffffffffffffffffffff1673ffffffffffffffffffffffffffffffffffffffff16815260200190815260200160002060008201518160000160006101000a81548173ffffffffffffffffffffffffffffffffffffffff021916908373ffffffffffffffffffffffffffffffffffffffff16021790555060208201518160010190816105bc9190610f6e565b5060408201518160020190816105d29190610f6e565b5060608201518160030160006101000a81548160ff0219169083151502179055509050503373ffffffffffffffffffffffffffffffffffffffff167f8887cf178ddcf6da44626883bd5992b23cb516935a09e77a6f52b3cfdeffd43f848460405161063e9291906110ce565b60405180910390a2505050565b60006060806000808573ffffffffffffffffffffffffffffffffffffffff1673ffffffffffffffffffffffffffffffffffffffff16815260200190815260200160002060030160009054906101000a900460ff166106de576040517f08c379a00000000000000000000000000000000000000000000000000000000081526004016106d590610d2c565b60405180910390fd5b60008060008673ffffffffffffffffffffffffffffffffffffffff1673ffffffffffffffffffffffffffffffffffffffff16815260200190815260200160002090508060000160009054906101000a900473ffffffffffffffffffffffffffffffffffffffff16816001018260020181805461075990610caf565b80601f016020809104026020016040519081016040528092919081815260200182805461078590610caf565b80156107d25780601f106107a7576101008083540402835291602001916107d2565b820191906000526020600020905b8154815290600101906020018083116107b557829003601f168201915b505050505091508080546107e590610caf565b80601f016020809104026020016040519081016040528092919081815260200182805461081190610caf565b801561085e5780601f106108335761010080835404028352916020019161085e565b820191906000526020600020905b81548152906001019060200180831161084157829003601f168201915b50505050509050935093509350509193909250565b6000604051905090565b600080fd5b600080fd5b600073ffffffffffffffffffffffffffffffffffffffff82169050919050565b60006108b282610887565b9050919050565b6108c2816108a7565b81146108cd57600080fd5b50565b6000813590506108df816108b9565b92915050565b6000602082840312156108fb576108fa61087d565b5b6000610909848285016108d0565b91505092915050565b61091b816108a7565b82525050565b600081519050919050565b600082825260208201905092915050565b60005b8381101561095b578082015181840152602081019050610940565b60008484015250505050565b6000601f19601f8301169050919050565b600061098382610921565b61098d818561092c565b935061099d81856020860161093d565b6109a681610967565b840191505092915050565b60008115159050919050565b6109c6816109b1565b82525050565b60006080820190506109e16000830187610912565b81810360208301526109f38186610978565b90508181036040830152610a078185610978565b9050610a1660608301846109bd565b95945050505050565b600080fd5b600080fd5b7f4e487b7100000000000000000000000000000000000000000000000000000000600052604160045260246000fd5b610a6182610967565b810181811067ffffffffffffffff82111715610a8057610a7f610a29565b5b80604052505050565b6000610a93610873565b9050610a9f8282610a58565b919050565b600067ffffffffffffffff821115610abf57610abe610a29565b5b610ac882610967565b9050602081019050919050565b82818337600083830152505050565b6000610af7610af284610aa4565b610a89565b905082815260208101848484011115610b1357610b12610a24565b5b610b1e848285610ad5565b509392505050565b600082601f830112610b3b57610b3a610a1f565b5b8135610b4b848260208601610ae4565b91505092915050565b60008060408385031215610b6b57610b6a61087d565b5b6000610b79858286016108d0565b925050602083013567ffffffffffffffff811115610b9a57610b99610882565b5b610ba685828601610b26565b9150509250929050565b600080600060608486031215610bc957610bc861087d565b5b6000610bd7868287016108d0565b935050602084013567ffffffffffffffff811115610bf857610bf7610882565b5b610c0486828701610b26565b925050604084013567ffffffffffffffff811115610c2557610c24610882565b5b610c3186828701610b26565b9150509250925092565b6000606082019050610c506000830186610912565b8181036020830152610c628185610978565b90508181036040830152610c768184610978565b9050949350505050565b7f4e487b7100000000000000000000000000000000000000000000000000000000600052602260045260246000fd5b60006002820490506001821680610cc757607f821691505b602082108103610cda57610cd9610c80565b5b50919050565b7f44494420646f6573206e6f742065786973740000000000000000000000000000600082015250565b6000610d1660128361092c565b9150610d2182610ce0565b602082019050919050565b60006020820190508181036000830152610d4581610d09565b9050919050565b7f4e6f7420617574686f72697a6564000000000000000000000000000000000000600082015250565b6000610d82600e8361092c565b9150610d8d82610d4c565b602082019050919050565b60006020820190508181036000830152610db181610d75565b9050919050565b60008190508160005260206000209050919050565b60006020601f8301049050919050565b600082821b905092915050565b600060088302610e1a7fffffffffffffffffffffffffffffffffffffffffffffffffffffffffffffffff82610ddd565b610e248683610ddd565b95508019841693508086168417925050509392505050565b6000819050919050565b6000819050919050565b6000610e6b610e66610e6184610e3c565b610e46565b610e3c565b9050919050565b6000819050919050565b610e8583610e50565b610e99610e9182610e72565b848454610dea565b825550505050565b600090565b610eae610ea1565b610eb9818484610e7c565b505050565b5b81811015610edd57610ed2600082610ea6565b600181019050610ebf565b5050565b601f821115610f2257610ef381610db8565b610efc84610dcd565b81016020851015610f0b578190505b610f1f610f1785610dcd565b830182610ebe565b50505b505050565b600082821c905092915050565b6000610f4560001984600802610f27565b1980831691505092915050565b6000610f5e8383610f34565b9150826002028217905092915050565b610f7782610921565b67ffffffffffffffff811115610f9057610f8f610a29565b5b610f9a8254610caf565b610fa5828285610ee1565b600060209050601f831160018114610fd85760008415610fc6578287015190505b610fd08582610f52565b865550611038565b601f198416610fe686610db8565b60005b8281101561100e57848901518255600182019150602085019450602081019050610fe9565b8683101561102b5784890151611027601f891682610f34565b8355505b6001600288020188555050505b505050505050565b6000602082019050818103600083015261105a8184610978565b905092915050565b7f44494420616c7265616479206578697374730000000000000000000000000000600082015250565b600061109860128361092c565b91506110a382611062565b602082019050919050565b600060208201905081810360008301526110c78161108b565b9050919050565b60006040820190506110e36000830185610912565b81810360208301526110f58184610978565b9050939250505056fea26469706673582212202543370bd1eb6a0d24c160ed20f0f43449f87030a37c9db4689f20129388112264736f6c63430008180033",
  "linkReferences": {},
  "deployedLinkReferences": {}
}